{
  "contractName": "AtomicTokenSwap",
  "abi": [
    {
      "constant": false,
      "inputs": [
        {
          "name": "_expiration",
          "type": "uint256"
        },
        {
          "name": "_hash",
          "type": "bytes20"
        },
        {
          "name": "_participant",
          "type": "address"
        },
        {
          "name": "_token",
          "type": "address"
        },
        {
          "name": "_value",
          "type": "uint256"
        }
      ],
      "name": "initiate",
      "outputs": [],
      "payable": false,
      "stateMutability": "nonpayable",
      "type": "function"
    },
    {
      "constant": true,
      "inputs": [
        {
          "name": "",
          "type": "address"
        },
        {
          "name": "",
          "type": "bytes20"
        }
      ],
      "name": "swaps",
      "outputs": [
        {
          "name": "expiration",
          "type": "uint256"
        },
        {
          "name": "initiator",
          "type": "address"
        },
        {
          "name": "participant",
          "type": "address"
        },
        {
          "name": "token",
          "type": "address"
        },
        {
          "name": "value",
          "type": "uint256"
        },
        {
          "name": "exists",
          "type": "bool"
        }
      ],
      "payable": false,
      "stateMutability": "view",
      "type": "function"
    },
    {
      "constant": false,
      "inputs": [
        {
          "name": "_secret",
          "type": "bytes32"
        }
      ],
      "name": "redeem",
      "outputs": [],
      "payable": false,
      "stateMutability": "nonpayable",
      "type": "function"
    },
    {
      "constant": false,
      "inputs": [
        {
          "name": "_hash",
          "type": "bytes20"
        },
        {
          "name": "_participant",
          "type": "address"
        }
      ],
      "name": "refund",
      "outputs": [],
      "payable": false,
      "stateMutability": "nonpayable",
      "type": "function"
    }
  ],
  "bytecode": "0x6060604052341561000f57600080fd5b610c5a8061001e6000396000f300606060405260043610610062576000357c0100000000000000000000000000000000000000000000000000000000900463ffffffff16806352f50db714610067578063e2ca481c146100e9578063eda1122c146101f9578063f66c75e514610220575b600080fd5b341561007257600080fd5b6100e760048080359060200190919080356bffffffffffffffffffffffff191690602001909190803573ffffffffffffffffffffffffffffffffffffffff1690602001909190803573ffffffffffffffffffffffffffffffffffffffff16906020019091908035906020019091905050610271565b005b34156100f457600080fd5b610138600480803573ffffffffffffffffffffffffffffffffffffffff169060200190919080356bffffffffffffffffffffffff19169060200190919050506106f9565b604051808781526020018673ffffffffffffffffffffffffffffffffffffffff1673ffffffffffffffffffffffffffffffffffffffff1681526020018573ffffffffffffffffffffffffffffffffffffffff1673ffffffffffffffffffffffffffffffffffffffff1681526020018473ffffffffffffffffffffffffffffffffffffffff1673ffffffffffffffffffffffffffffffffffffffff16815260200183815260200182151515158152602001965050505050505060405180910390f35b341561020457600080fd5b61021e6004808035600019169060200190919050506107af565b005b341561022b57600080fd5b61026f60048080356bffffffffffffffffffffffff191690602001909190803573ffffffffffffffffffffffffffffffffffffffff16906020019091905050610a1a565b005b6000806000808673ffffffffffffffffffffffffffffffffffffffff1673ffffffffffffffffffffffffffffffffffffffff1681526020019081526020016000206000876bffffffffffffffffffffffff19166bffffffffffffffffffffffff191681526020019081526020016000209150600015158260050160009054906101000a900460ff16151514151561030757600080fd5b839050828173ffffffffffffffffffffffffffffffffffffffff1663dd62ed3e33306000604051602001526040518363ffffffff167c0100000000000000000000000000000000000000000000000000000000028152600401808373ffffffffffffffffffffffffffffffffffffffff1673ffffffffffffffffffffffffffffffffffffffff1681526020018273ffffffffffffffffffffffffffffffffffffffff1673ffffffffffffffffffffffffffffffffffffffff16815260200192505050602060405180830381600087803b15156103e257600080fd5b6102c65a03f115156103f357600080fd5b5050506040518051905014151561040957600080fd5b8073ffffffffffffffffffffffffffffffffffffffff166323b872dd3330866000604051602001526040518463ffffffff167c0100000000000000000000000000000000000000000000000000000000028152600401808473ffffffffffffffffffffffffffffffffffffffff1673ffffffffffffffffffffffffffffffffffffffff1681526020018373ffffffffffffffffffffffffffffffffffffffff1673ffffffffffffffffffffffffffffffffffffffff1681526020018281526020019350505050602060405180830381600087803b15156104e857600080fd5b6102c65a03f115156104f957600080fd5b505050604051805190505060c0604051908101604052808881526020013373ffffffffffffffffffffffffffffffffffffffff1681526020018673ffffffffffffffffffffffffffffffffffffffff1681526020018573ffffffffffffffffffffffffffffffffffffffff168152602001848152602001600115158152506000808773ffffffffffffffffffffffffffffffffffffffff1673ffffffffffffffffffffffffffffffffffffffff1681526020019081526020016000206000886bffffffffffffffffffffffff19166bffffffffffffffffffffffff191681526020019081526020016000206000820151816000015560208201518160010160006101000a81548173ffffffffffffffffffffffffffffffffffffffff021916908373ffffffffffffffffffffffffffffffffffffffff16021790555060408201518160020160006101000a81548173ffffffffffffffffffffffffffffffffffffffff021916908373ffffffffffffffffffffffffffffffffffffffff16021790555060608201518160030160006101000a81548173ffffffffffffffffffffffffffffffffffffffff021916908373ffffffffffffffffffffffffffffffffffffffff1602179055506080820151816004015560a08201518160050160006101000a81548160ff02191690831515021790555090505050505050505050565b6000602052816000526040600020602052806000526040600020600091509150508060000154908060010160009054906101000a900473ffffffffffffffffffffffffffffffffffffffff16908060020160009054906101000a900473ffffffffffffffffffffffffffffffffffffffff16908060030160009054906101000a900473ffffffffffffffffffffffffffffffffffffffff16908060040154908060050160009054906101000a900460ff16905086565b600080600060038460006040516020015260405180826000191660001916815260200191505060206040518083038160008661646e5a03f115156107f257600080fd5b5050604051516c010000000000000000000000000292506000803373ffffffffffffffffffffffffffffffffffffffff1673ffffffffffffffffffffffffffffffffffffffff1681526020019081526020016000206000846bffffffffffffffffffffffff19166bffffffffffffffffffffffff1916815260200190815260200160002091508160020160009054906101000a900473ffffffffffffffffffffffffffffffffffffffff1673ffffffffffffffffffffffffffffffffffffffff163373ffffffffffffffffffffffffffffffffffffffff161415156108d657600080fd5b8160000154421015156108e857600080fd5b8160050160009054906101000a900460ff16151561090557600080fd5b60008260050160006101000a81548160ff0219169083151502179055508160030160009054906101000a900473ffffffffffffffffffffffffffffffffffffffff1690508073ffffffffffffffffffffffffffffffffffffffff1663a9059cbb3384600401546000604051602001526040518363ffffffff167c0100000000000000000000000000000000000000000000000000000000028152600401808373ffffffffffffffffffffffffffffffffffffffff1673ffffffffffffffffffffffffffffffffffffffff16815260200182815260200192505050602060405180830381600087803b15156109f857600080fd5b6102c65a03f11515610a0957600080fd5b505050604051805190505050505050565b6000806000808473ffffffffffffffffffffffffffffffffffffffff1673ffffffffffffffffffffffffffffffffffffffff1681526020019081526020016000206000856bffffffffffffffffffffffff19166bffffffffffffffffffffffff191681526020019081526020016000209150816000015442111515610a9e57600080fd5b8160010160009054906101000a900473ffffffffffffffffffffffffffffffffffffffff1673ffffffffffffffffffffffffffffffffffffffff163373ffffffffffffffffffffffffffffffffffffffff16141515610afc57600080fd5b8160050160009054906101000a900460ff161515610b1957600080fd5b60008260050160006101000a81548160ff0219169083151502179055508160030160009054906101000a900473ffffffffffffffffffffffffffffffffffffffff1690508073ffffffffffffffffffffffffffffffffffffffff1663a9059cbb3384600401546000604051602001526040518363ffffffff167c0100000000000000000000000000000000000000000000000000000000028152600401808373ffffffffffffffffffffffffffffffffffffffff1673ffffffffffffffffffffffffffffffffffffffff16815260200182815260200192505050602060405180830381600087803b1515610c0c57600080fd5b6102c65a03f11515610c1d57600080fd5b5050506040518051905050505050505600a165627a7a723058205f1bc0ed5cc39dc5b8937eea35221e844b07fc2fd78d237d760dc6ab87e56cc30029",
  "source": "pragma solidity ^0.4.19;\n\ncontract ERC20Basic {\n  function totalSupply() public view returns (uint256);\n  function balanceOf(address who) public view returns (uint256);\n  function transfer(address to, uint256 value) public returns (bool);\n  event Transfer(address indexed from, address indexed to, uint256 value);\n}\n\ncontract ERC20 is ERC20Basic {\n  function allowance(address owner, address spender) public view returns (uint256);\n  function transferFrom(address from, address to, uint256 value) public returns (bool);\n  function approve(address spender, uint256 value) public returns (bool);\n  event Approval(address indexed owner, address indexed spender, uint256 value);\n}\n\ncontract AtomicTokenSwap {\n    struct Swap {\n        uint expiration;\n        address initiator;\n        address participant;\n        address token;\n        uint256 value;\n        bool exists;\n    }\n\n    // maps the bytes20 hash to a swap    \n    mapping(address => mapping(bytes20 => Swap)) public swaps;\n    \n    // creates a new swap\n    function initiate(uint _expiration, bytes20 _hash, address _participant, address _token, uint256 _value) public {\n        Swap storage s = swaps[_participant][_hash];\n        \n        // make sure you aren't overwriting a pre-existing swap\n        // (so the original initiator can't rewrite the terms)\n        require(s.exists == false);\n\n        // require that the sender has allowed the tokens to be withdrawn from their account\n        ERC20 token = ERC20(_token);\n        require(token.allowance(msg.sender, this) == _value);\n        token.transferFrom(msg.sender, this, _value);\n\n        // create the new swap\n        swaps[_participant][_hash] = Swap(_expiration, msg.sender, _participant, _token, _value, true);\n    }\n    \n    function redeem(bytes32 _secret) public {\n        // get a swap from the mapping. we can do it directly because there is no way to \n        // fake the secret.\n        bytes20 hash = ripemd160(_secret);\n        Swap storage s = swaps[msg.sender][hash];\n        \n        // make sure it's the right sender\n        require(msg.sender == s.participant);\n        // make sure the swap did not expire already\n        require(now < s.expiration);\n        // make sure the swap was not redeemed or refunded\n        require(s.exists);\n        // clean up and send\n        s.exists = false;\n        ERC20 token = ERC20(s.token);\n        token.transfer(msg.sender, s.value);\n    }\n    \n    function refund(bytes20 _hash, address _participant) public {\n        Swap storage s = swaps[_participant][_hash];\n        require(now > s.expiration);\n        require(msg.sender == s.initiator);\n        // make sure the swap was not redeemed or refunded\n        require(s.exists);\n\n        s.exists = false;\n        ERC20 token = ERC20(s.token);\n        token.transfer(msg.sender, s.value);\n    }\n}",
  "sourcePath": "/Users/cupsadarius/Work/lamden/ethswaps/contracts/AtomicTokenSwap.sol",
  "compiler": {
    "name": "solc",
    "version": "0.4.19+commit.c4cbbb05.Emscripten.clang"
  },
  "schemaVersion": "1.0.1",
  "updatedAt": "2018-02-22T19:52:01.880Z"
}