{
  "contractName": "AtomicSwapTest",
  "abi": [
    {
      "constant": false,
      "inputs": [
        {
          "name": "_expiration",
          "type": "uint256"
        },
        {
          "name": "_hash",
          "type": "bytes20"
        },
        {
          "name": "_participant",
          "type": "address"
        },
        {
          "name": "_token",
          "type": "address"
        },
        {
          "name": "_isToken",
          "type": "bool"
        },
        {
          "name": "_value",
          "type": "uint256"
        }
      ],
      "name": "initiate",
      "outputs": [],
      "payable": true,
      "stateMutability": "payable",
      "type": "function"
    },
    {
      "constant": true,
      "inputs": [
        {
          "name": "",
          "type": "address"
        },
        {
          "name": "",
          "type": "bytes20"
        }
      ],
      "name": "swaps",
      "outputs": [
        {
          "name": "expiration",
          "type": "uint256"
        },
        {
          "name": "initiator",
          "type": "address"
        },
        {
          "name": "participant",
          "type": "address"
        },
        {
          "name": "value",
          "type": "uint256"
        },
        {
          "name": "isToken",
          "type": "bool"
        },
        {
          "name": "token",
          "type": "address"
        },
        {
          "name": "exists",
          "type": "bool"
        }
      ],
      "payable": false,
      "stateMutability": "view",
      "type": "function"
    },
    {
      "constant": false,
      "inputs": [
        {
          "name": "_secret",
          "type": "bytes32"
        }
      ],
      "name": "redeem",
      "outputs": [],
      "payable": false,
      "stateMutability": "nonpayable",
      "type": "function"
    },
    {
      "constant": false,
      "inputs": [
        {
          "name": "_hash",
          "type": "bytes20"
        },
        {
          "name": "_participant",
          "type": "address"
        }
      ],
      "name": "refund",
      "outputs": [],
      "payable": false,
      "stateMutability": "nonpayable",
      "type": "function"
    },
    {
      "constant": false,
      "inputs": [
        {
          "name": "_hash",
          "type": "bytes20"
        },
        {
          "name": "_participant",
          "type": "address"
        }
      ],
      "name": "clearSwap",
      "outputs": [],
      "payable": false,
      "stateMutability": "nonpayable",
      "type": "function"
    }
  ],
  "bytecode": "0x6060604052341561000f57600080fd5b610e2d8061001e6000396000f30060606040526004361061006d576000357c0100000000000000000000000000000000000000000000000000000000900463ffffffff1680637337c99314610072578063a689b746146100f4578063e2ca481c14610145578063eda1122c14610260578063f66c75e514610287575b600080fd5b6100f260048080359060200190919080356bffffffffffffffffffffffff191690602001909190803573ffffffffffffffffffffffffffffffffffffffff1690602001909190803573ffffffffffffffffffffffffffffffffffffffff1690602001909190803515159060200190919080359060200190919050506102d8565b005b34156100ff57600080fd5b61014360048080356bffffffffffffffffffffffff191690602001909190803573ffffffffffffffffffffffffffffffffffffffff169060200190919050506107aa565b005b341561015057600080fd5b610194600480803573ffffffffffffffffffffffffffffffffffffffff169060200190919080356bffffffffffffffffffffffff1916906020019091905050610855565b604051808881526020018773ffffffffffffffffffffffffffffffffffffffff1673ffffffffffffffffffffffffffffffffffffffff1681526020018673ffffffffffffffffffffffffffffffffffffffff1673ffffffffffffffffffffffffffffffffffffffff168152602001858152602001841515151581526020018373ffffffffffffffffffffffffffffffffffffffff1673ffffffffffffffffffffffffffffffffffffffff1681526020018215151515815260200197505050505050505060405180910390f35b341561026b57600080fd5b61028560048080356000191690602001909190505061091e565b005b341561029257600080fd5b6102d660048080356bffffffffffffffffffffffff191690602001909190803573ffffffffffffffffffffffffffffffffffffffff16906020019091905050610b8c565b005b6000806000808773ffffffffffffffffffffffffffffffffffffffff1673ffffffffffffffffffffffffffffffffffffffff1681526020019081526020016000206000886bffffffffffffffffffffffff19166bffffffffffffffffffffffff191681526020019081526020016000209150600015158260040160159054906101000a900460ff16151514151561036e57600080fd5b874210151561037c57600080fd5b831561058057849050828173ffffffffffffffffffffffffffffffffffffffff1663dd62ed3e33306000604051602001526040518363ffffffff167c0100000000000000000000000000000000000000000000000000000000028152600401808373ffffffffffffffffffffffffffffffffffffffff1673ffffffffffffffffffffffffffffffffffffffff1681526020018273ffffffffffffffffffffffffffffffffffffffff1673ffffffffffffffffffffffffffffffffffffffff16815260200192505050602060405180830381600087803b151561045d57600080fd5b6102c65a03f1151561046e57600080fd5b5050506040518051905014151561048457600080fd5b8073ffffffffffffffffffffffffffffffffffffffff166323b872dd3330866000604051602001526040518463ffffffff167c0100000000000000000000000000000000000000000000000000000000028152600401808473ffffffffffffffffffffffffffffffffffffffff1673ffffffffffffffffffffffffffffffffffffffff1681526020018373ffffffffffffffffffffffffffffffffffffffff1673ffffffffffffffffffffffffffffffffffffffff1681526020018281526020019350505050602060405180830381600087803b151561056357600080fd5b6102c65a03f1151561057457600080fd5b50505060405180519050505b60e0604051908101604052808981526020013373ffffffffffffffffffffffffffffffffffffffff1681526020018773ffffffffffffffffffffffffffffffffffffffff168152602001856105d557346105d7565b845b815260200185151581526020018673ffffffffffffffffffffffffffffffffffffffff168152602001600115158152506000808873ffffffffffffffffffffffffffffffffffffffff1673ffffffffffffffffffffffffffffffffffffffff1681526020019081526020016000206000896bffffffffffffffffffffffff19166bffffffffffffffffffffffff191681526020019081526020016000206000820151816000015560208201518160010160006101000a81548173ffffffffffffffffffffffffffffffffffffffff021916908373ffffffffffffffffffffffffffffffffffffffff16021790555060408201518160020160006101000a81548173ffffffffffffffffffffffffffffffffffffffff021916908373ffffffffffffffffffffffffffffffffffffffff1602179055506060820151816003015560808201518160040160006101000a81548160ff02191690831515021790555060a08201518160040160016101000a81548173ffffffffffffffffffffffffffffffffffffffff021916908373ffffffffffffffffffffffffffffffffffffffff16021790555060c08201518160040160156101000a81548160ff0219169083151502179055509050505050505050505050565b60008060008373ffffffffffffffffffffffffffffffffffffffff1673ffffffffffffffffffffffffffffffffffffffff1681526020019081526020016000206000846bffffffffffffffffffffffff19166bffffffffffffffffffffffff1916815260200190815260200160002090508060040160159054906101000a900460ff16156108505760008160040160156101000a81548160ff0219169083151502179055505b505050565b6000602052816000526040600020602052806000526040600020600091509150508060000154908060010160009054906101000a900473ffffffffffffffffffffffffffffffffffffffff16908060020160009054906101000a900473ffffffffffffffffffffffffffffffffffffffff16908060030154908060040160009054906101000a900460ff16908060040160019054906101000a900473ffffffffffffffffffffffffffffffffffffffff16908060040160159054906101000a900460ff16905087565b600080600060038460006040516020015260405180826000191660001916815260200191505060206040518083038160008661646e5a03f1151561096157600080fd5b5050604051516c010000000000000000000000000292506000803373ffffffffffffffffffffffffffffffffffffffff1673ffffffffffffffffffffffffffffffffffffffff1681526020019081526020016000206000846bffffffffffffffffffffffff19166bffffffffffffffffffffffff1916815260200190815260200160002091508160040160159054906101000a900460ff161515610a0457600080fd5b816000015442101515610a1657600080fd5b60008260040160156101000a81548160ff0219169083151502179055508160040160009054906101000a900460ff1615610b41578160040160019054906101000a900473ffffffffffffffffffffffffffffffffffffffff1690508073ffffffffffffffffffffffffffffffffffffffff1663a9059cbb3384600301546000604051602001526040518363ffffffff167c0100000000000000000000000000000000000000000000000000000000028152600401808373ffffffffffffffffffffffffffffffffffffffff1673ffffffffffffffffffffffffffffffffffffffff16815260200182815260200192505050602060405180830381600087803b1515610b2057600080fd5b6102c65a03f11515610b3157600080fd5b5050506040518051905050610b86565b3373ffffffffffffffffffffffffffffffffffffffff166108fc83600301549081150290604051600060405180830381858888f193505050501515610b8557600080fd5b5b50505050565b6000806000808473ffffffffffffffffffffffffffffffffffffffff1673ffffffffffffffffffffffffffffffffffffffff1681526020019081526020016000206000856bffffffffffffffffffffffff19166bffffffffffffffffffffffff191681526020019081526020016000209150816000015442111515610c1057600080fd5b8160010160009054906101000a900473ffffffffffffffffffffffffffffffffffffffff1673ffffffffffffffffffffffffffffffffffffffff163373ffffffffffffffffffffffffffffffffffffffff16141515610c6e57600080fd5b8160040160159054906101000a900460ff161515610c8b57600080fd5b60008260040160156101000a81548160ff0219169083151502179055508160040160009054906101000a900460ff1615610db6578160040160019054906101000a900473ffffffffffffffffffffffffffffffffffffffff1690508073ffffffffffffffffffffffffffffffffffffffff1663a9059cbb3384600301546000604051602001526040518363ffffffff167c0100000000000000000000000000000000000000000000000000000000028152600401808373ffffffffffffffffffffffffffffffffffffffff1673ffffffffffffffffffffffffffffffffffffffff16815260200182815260200192505050602060405180830381600087803b1515610d9557600080fd5b6102c65a03f11515610da657600080fd5b5050506040518051905050610dfb565b3373ffffffffffffffffffffffffffffffffffffffff166108fc83600301549081150290604051600060405180830381858888f193505050501515610dfa57600080fd5b5b505050505600a165627a7a723058201f6f040ea2ad7b69acb9171b63d1e20ed54bca3372065761b646d7f95a03cf750029",
  "source": "pragma solidity ^0.4.19;\n\nimport \"./AtomicSwap.sol\";\n\ncontract AtomicSwapTest is AtomicSwap {\n  \n  function clearSwap(bytes20 _hash, address _participant) public {\n    Swap storage s = swaps[_participant][_hash];\n\n    if (s.exists) {\n      s.exists = false;\n    }\n  }\n}",
  "sourcePath": "/Users/cupsadarius/Work/lamden/ethswaps/contracts/AtomicSwapTest.sol",
  "compiler": {
    "name": "solc",
    "version": "0.4.19+commit.c4cbbb05.Emscripten.clang"
  },
  "schemaVersion": "1.0.1",
  "updatedAt": "2018-02-27T15:04:34.575Z"
}