{
  "contractName": "AtomicSwap",
  "abi": [
    {
      "constant": false,
      "inputs": [
        {
          "name": "_expiration",
          "type": "uint256"
        },
        {
          "name": "_hash",
          "type": "bytes20"
        },
        {
          "name": "_participant",
          "type": "address"
        },
        {
          "name": "_token",
          "type": "address"
        },
        {
          "name": "_isToken",
          "type": "bool"
        },
        {
          "name": "_value",
          "type": "uint256"
        }
      ],
      "name": "initiate",
      "outputs": [],
      "payable": true,
      "stateMutability": "payable",
      "type": "function"
    },
    {
      "constant": true,
      "inputs": [
        {
          "name": "",
          "type": "address"
        },
        {
          "name": "",
          "type": "bytes20"
        }
      ],
      "name": "swaps",
      "outputs": [
        {
          "name": "expiration",
          "type": "uint256"
        },
        {
          "name": "initiator",
          "type": "address"
        },
        {
          "name": "participant",
          "type": "address"
        },
        {
          "name": "value",
          "type": "uint256"
        },
        {
          "name": "isToken",
          "type": "bool"
        },
        {
          "name": "token",
          "type": "address"
        },
        {
          "name": "exists",
          "type": "bool"
        }
      ],
      "payable": false,
      "stateMutability": "view",
      "type": "function"
    },
    {
      "constant": false,
      "inputs": [
        {
          "name": "_secret",
          "type": "bytes32"
        }
      ],
      "name": "redeem",
      "outputs": [],
      "payable": false,
      "stateMutability": "nonpayable",
      "type": "function"
    },
    {
      "constant": false,
      "inputs": [
        {
          "name": "_hash",
          "type": "bytes20"
        },
        {
          "name": "_participant",
          "type": "address"
        }
      ],
      "name": "refund",
      "outputs": [],
      "payable": false,
      "stateMutability": "nonpayable",
      "type": "function"
    }
  ],
  "bytecode": "0x6060604052341561000f57600080fd5b610d268061001e6000396000f300606060405260043610610062576000357c0100000000000000000000000000000000000000000000000000000000900463ffffffff1680637337c99314610067578063e2ca481c146100e9578063eda1122c14610204578063f66c75e51461022b575b600080fd5b6100e760048080359060200190919080356bffffffffffffffffffffffff191690602001909190803573ffffffffffffffffffffffffffffffffffffffff1690602001909190803573ffffffffffffffffffffffffffffffffffffffff16906020019091908035151590602001909190803590602001909190505061027c565b005b34156100f457600080fd5b610138600480803573ffffffffffffffffffffffffffffffffffffffff169060200190919080356bffffffffffffffffffffffff191690602001909190505061074e565b604051808881526020018773ffffffffffffffffffffffffffffffffffffffff1673ffffffffffffffffffffffffffffffffffffffff1681526020018673ffffffffffffffffffffffffffffffffffffffff1673ffffffffffffffffffffffffffffffffffffffff168152602001858152602001841515151581526020018373ffffffffffffffffffffffffffffffffffffffff1673ffffffffffffffffffffffffffffffffffffffff1681526020018215151515815260200197505050505050505060405180910390f35b341561020f57600080fd5b610229600480803560001916906020019091905050610817565b005b341561023657600080fd5b61027a60048080356bffffffffffffffffffffffff191690602001909190803573ffffffffffffffffffffffffffffffffffffffff16906020019091905050610a85565b005b6000806000808773ffffffffffffffffffffffffffffffffffffffff1673ffffffffffffffffffffffffffffffffffffffff1681526020019081526020016000206000886bffffffffffffffffffffffff19166bffffffffffffffffffffffff191681526020019081526020016000209150600015158260040160159054906101000a900460ff16151514151561031257600080fd5b874210151561032057600080fd5b831561052457849050828173ffffffffffffffffffffffffffffffffffffffff1663dd62ed3e33306000604051602001526040518363ffffffff167c0100000000000000000000000000000000000000000000000000000000028152600401808373ffffffffffffffffffffffffffffffffffffffff1673ffffffffffffffffffffffffffffffffffffffff1681526020018273ffffffffffffffffffffffffffffffffffffffff1673ffffffffffffffffffffffffffffffffffffffff16815260200192505050602060405180830381600087803b151561040157600080fd5b6102c65a03f1151561041257600080fd5b5050506040518051905014151561042857600080fd5b8073ffffffffffffffffffffffffffffffffffffffff166323b872dd3330866000604051602001526040518463ffffffff167c0100000000000000000000000000000000000000000000000000000000028152600401808473ffffffffffffffffffffffffffffffffffffffff1673ffffffffffffffffffffffffffffffffffffffff1681526020018373ffffffffffffffffffffffffffffffffffffffff1673ffffffffffffffffffffffffffffffffffffffff1681526020018281526020019350505050602060405180830381600087803b151561050757600080fd5b6102c65a03f1151561051857600080fd5b50505060405180519050505b60e0604051908101604052808981526020013373ffffffffffffffffffffffffffffffffffffffff1681526020018773ffffffffffffffffffffffffffffffffffffffff16815260200185610579573461057b565b845b815260200185151581526020018673ffffffffffffffffffffffffffffffffffffffff168152602001600115158152506000808873ffffffffffffffffffffffffffffffffffffffff1673ffffffffffffffffffffffffffffffffffffffff1681526020019081526020016000206000896bffffffffffffffffffffffff19166bffffffffffffffffffffffff191681526020019081526020016000206000820151816000015560208201518160010160006101000a81548173ffffffffffffffffffffffffffffffffffffffff021916908373ffffffffffffffffffffffffffffffffffffffff16021790555060408201518160020160006101000a81548173ffffffffffffffffffffffffffffffffffffffff021916908373ffffffffffffffffffffffffffffffffffffffff1602179055506060820151816003015560808201518160040160006101000a81548160ff02191690831515021790555060a08201518160040160016101000a81548173ffffffffffffffffffffffffffffffffffffffff021916908373ffffffffffffffffffffffffffffffffffffffff16021790555060c08201518160040160156101000a81548160ff0219169083151502179055509050505050505050505050565b6000602052816000526040600020602052806000526040600020600091509150508060000154908060010160009054906101000a900473ffffffffffffffffffffffffffffffffffffffff16908060020160009054906101000a900473ffffffffffffffffffffffffffffffffffffffff16908060030154908060040160009054906101000a900460ff16908060040160019054906101000a900473ffffffffffffffffffffffffffffffffffffffff16908060040160159054906101000a900460ff16905087565b600080600060038460006040516020015260405180826000191660001916815260200191505060206040518083038160008661646e5a03f1151561085a57600080fd5b5050604051516c010000000000000000000000000292506000803373ffffffffffffffffffffffffffffffffffffffff1673ffffffffffffffffffffffffffffffffffffffff1681526020019081526020016000206000846bffffffffffffffffffffffff19166bffffffffffffffffffffffff1916815260200190815260200160002091508160040160159054906101000a900460ff1615156108fd57600080fd5b81600001544210151561090f57600080fd5b60008260040160156101000a81548160ff0219169083151502179055508160040160009054906101000a900460ff1615610a3a578160040160019054906101000a900473ffffffffffffffffffffffffffffffffffffffff1690508073ffffffffffffffffffffffffffffffffffffffff1663a9059cbb3384600301546000604051602001526040518363ffffffff167c0100000000000000000000000000000000000000000000000000000000028152600401808373ffffffffffffffffffffffffffffffffffffffff1673ffffffffffffffffffffffffffffffffffffffff16815260200182815260200192505050602060405180830381600087803b1515610a1957600080fd5b6102c65a03f11515610a2a57600080fd5b5050506040518051905050610a7f565b3373ffffffffffffffffffffffffffffffffffffffff166108fc83600301549081150290604051600060405180830381858888f193505050501515610a7e57600080fd5b5b50505050565b6000806000808473ffffffffffffffffffffffffffffffffffffffff1673ffffffffffffffffffffffffffffffffffffffff1681526020019081526020016000206000856bffffffffffffffffffffffff19166bffffffffffffffffffffffff191681526020019081526020016000209150816000015442111515610b0957600080fd5b8160010160009054906101000a900473ffffffffffffffffffffffffffffffffffffffff1673ffffffffffffffffffffffffffffffffffffffff163373ffffffffffffffffffffffffffffffffffffffff16141515610b6757600080fd5b8160040160159054906101000a900460ff161515610b8457600080fd5b60008260040160156101000a81548160ff0219169083151502179055508160040160009054906101000a900460ff1615610caf578160040160019054906101000a900473ffffffffffffffffffffffffffffffffffffffff1690508073ffffffffffffffffffffffffffffffffffffffff1663a9059cbb3384600301546000604051602001526040518363ffffffff167c0100000000000000000000000000000000000000000000000000000000028152600401808373ffffffffffffffffffffffffffffffffffffffff1673ffffffffffffffffffffffffffffffffffffffff16815260200182815260200192505050602060405180830381600087803b1515610c8e57600080fd5b6102c65a03f11515610c9f57600080fd5b5050506040518051905050610cf4565b3373ffffffffffffffffffffffffffffffffffffffff166108fc83600301549081150290604051600060405180830381858888f193505050501515610cf357600080fd5b5b505050505600a165627a7a72305820232d537a403bfd342a4c0546d04210bb8151f37c5079ffb9a5c9446235c959fd0029",
  "source": "pragma solidity ^0.4.19;\n\ncontract ERC20Basic {\n  function totalSupply() public view returns (uint256);\n  function balanceOf(address who) public view returns (uint256);\n  function transfer(address to, uint256 value) public returns (bool);\n  event Transfer(address indexed from, address indexed to, uint256 value);\n}\n\ncontract ERC20 is ERC20Basic {\n  function allowance(address owner, address spender) public view returns (uint256);\n  function transferFrom(address from, address to, uint256 value) public returns (bool);\n  function approve(address spender, uint256 value) public returns (bool);\n  event Approval(address indexed owner, address indexed spender, uint256 value);\n}\n\ncontract AtomicSwap {\n  struct Swap {\n    uint expiration;\n    address initiator;\n    address participant;\n    uint256 value;\n    bool isToken;\n    address token;\n    bool exists;\n  }\n\n  // maps the redeemer and bytes20 hash to a swap    \n  mapping(address => mapping(bytes20 => Swap)) public swaps;\n\n  function initiate(uint _expiration, bytes20 _hash, address _participant, address _token, bool _isToken, uint256 _value) payable public {\n    Swap storage s = swaps[_participant][_hash];\n    // make sure you aren't overwriting a pre-existing swap\n    // (so the original initiator can't rewrite the terms)\n    require (s.exists == false);\n    // don't allow the creation of already expired swaps\n    require (now < _expiration);\n\n    if (_isToken) {\n      // require that the sender has allowed the tokens to be withdrawn from their account\n      ERC20 token = ERC20(_token);\n      require(token.allowance(msg.sender, this) == _value);\n      token.transferFrom(msg.sender, this, _value);\n    }\n    // create the new swap\n    swaps[_participant][_hash] = Swap(_expiration, msg.sender, _participant, _isToken ? _value : msg.value, _isToken, _token, true);\n  }\n\n  function redeem(bytes32 _secret) public {\n    // get a swap from the mapping. we can do it directly because there is no way to \n    // fake the secret.\n    bytes20 hash = ripemd160(_secret);\n    Swap storage s = swaps[msg.sender][hash];\n    \n    // make sure the swap was not redeemed or refunded\n    require(s.exists);\n    // make sure the swap did not expire already\n    require(now < s.expiration);\n    \n    // clean up and send\n    s.exists = false;\n    if (s.isToken) {\n      ERC20 token = ERC20(s.token);\n      token.transfer(msg.sender, s.value);\n    } else {\n      msg.sender.transfer(s.value);\n    }\n  }\n\n  function refund(bytes20 _hash, address _participant) public {\n    Swap storage s = swaps[_participant][_hash];\n    // don't allow refund if swap did not expire\n    require(now > s.expiration);\n    // don't allow refunds if the caller is not the initator\n    require(msg.sender == s.initiator);\n    // make sure the swap was not redeemed or refunded\n    require(s.exists);\n\n    s.exists = false;\n    if (s.isToken) {\n      ERC20 token = ERC20(s.token);\n      token.transfer(msg.sender, s.value);\n    } else {\n      msg.sender.transfer(s.value);\n    }\n  }\n}",
  "sourcePath": "/Users/cupsadarius/Work/lamden/ethswaps/contracts/AtomicSwap.sol",
  "compiler": {
    "name": "solc",
    "version": "0.4.19+commit.c4cbbb05.Emscripten.clang"
  },
  "schemaVersion": "1.0.1",
  "updatedAt": "2018-02-27T15:04:34.580Z"
}